{
  "contractName": "DappTokenSale",
  "abi": [
    {
      "inputs": [
        {
          "internalType": "contract DappToken",
          "name": "_tokenContract",
          "type": "address"
        },
        {
          "internalType": "uint256",
          "name": "_tokenPrice",
          "type": "uint256"
        }
      ],
      "payable": false,
      "stateMutability": "nonpayable",
      "type": "constructor"
    },
    {
      "anonymous": false,
      "inputs": [
        {
          "indexed": false,
          "internalType": "address",
          "name": "_buyer",
          "type": "address"
        },
        {
          "indexed": false,
          "internalType": "uint256",
          "name": "_amount",
          "type": "uint256"
        }
      ],
      "name": "Sell",
      "type": "event"
    },
    {
      "constant": true,
      "inputs": [],
      "name": "admin",
      "outputs": [
        {
          "internalType": "address payable",
          "name": "",
          "type": "address"
        }
      ],
      "payable": false,
      "stateMutability": "view",
      "type": "function"
    },
    {
      "constant": true,
      "inputs": [],
      "name": "tokenContract",
      "outputs": [
        {
          "internalType": "contract DappToken",
          "name": "",
          "type": "address"
        }
      ],
      "payable": false,
      "stateMutability": "view",
      "type": "function"
    },
    {
      "constant": true,
      "inputs": [],
      "name": "tokenPrice",
      "outputs": [
        {
          "internalType": "uint256",
          "name": "",
          "type": "uint256"
        }
      ],
      "payable": false,
      "stateMutability": "view",
      "type": "function"
    },
    {
      "constant": true,
      "inputs": [],
      "name": "tokensSold",
      "outputs": [
        {
          "internalType": "uint256",
          "name": "",
          "type": "uint256"
        }
      ],
      "payable": false,
      "stateMutability": "view",
      "type": "function"
    },
    {
      "constant": false,
      "inputs": [
        {
          "internalType": "uint256",
          "name": "_numberOfTokens",
          "type": "uint256"
        }
      ],
      "name": "buyTokens",
      "outputs": [],
      "payable": true,
      "stateMutability": "payable",
      "type": "function"
    },
    {
      "constant": false,
      "inputs": [],
      "name": "endSale",
      "outputs": [],
      "payable": false,
      "stateMutability": "nonpayable",
      "type": "function"
    }
  ],
  "bytecode": "0x608060405234801561001057600080fd5b50604051610aca380380610aca8339818101604052604081101561003357600080fd5b810190808051906020019092919080519060200190929190505050336000806101000a81548173ffffffffffffffffffffffffffffffffffffffff021916908373ffffffffffffffffffffffffffffffffffffffff16021790555081600160006101000a81548173ffffffffffffffffffffffffffffffffffffffff021916908373ffffffffffffffffffffffffffffffffffffffff1602179055508060028190555050506109e3806100e76000396000f3fe6080604052600436106100555760003560e01c80633610724e1461005a578063380d831b14610088578063518ab2a81461009f57806355a373d6146100ca5780637ff9b59614610121578063f851a4401461014c575b600080fd5b6100866004803603602081101561007057600080fd5b81019080803590602001909291905050506101a3565b005b34801561009457600080fd5b5061009d610546565b005b3480156100ab57600080fd5b506100b46108c2565b6040518082815260200191505060405180910390f35b3480156100d657600080fd5b506100df6108c8565b604051808273ffffffffffffffffffffffffffffffffffffffff1673ffffffffffffffffffffffffffffffffffffffff16815260200191505060405180910390f35b34801561012d57600080fd5b506101366108ee565b6040518082815260200191505060405180910390f35b34801561015857600080fd5b506101616108f4565b604051808273ffffffffffffffffffffffffffffffffffffffff1673ffffffffffffffffffffffffffffffffffffffff16815260200191505060405180910390f35b6101af81600254610919565b3414610223576040517f08c379a00000000000000000000000000000000000000000000000000000000081526004018080602001828103825260138152602001807f427579546f6b656e73207265717569726520310000000000000000000000000081525060200191505060405180910390fd5b80600160009054906101000a900473ffffffffffffffffffffffffffffffffffffffff1673ffffffffffffffffffffffffffffffffffffffff166370a08231306040518263ffffffff1660e01b8152600401808273ffffffffffffffffffffffffffffffffffffffff1673ffffffffffffffffffffffffffffffffffffffff16815260200191505060206040518083038186803b1580156102c357600080fd5b505afa1580156102d7573d6000803e3d6000fd5b505050506040513d60208110156102ed57600080fd5b81019080805190602001909291905050501015610372576040517f08c379a00000000000000000000000000000000000000000000000000000000081526004018080602001828103825260138152602001807f427579546f6b656e73207265717569726520320000000000000000000000000081525060200191505060405180910390fd5b600160009054906101000a900473ffffffffffffffffffffffffffffffffffffffff1673ffffffffffffffffffffffffffffffffffffffff1663a9059cbb33836040518363ffffffff1660e01b8152600401808373ffffffffffffffffffffffffffffffffffffffff1673ffffffffffffffffffffffffffffffffffffffff16815260200182815260200192505050602060405180830381600087803b15801561041b57600080fd5b505af115801561042f573d6000803e3d6000fd5b505050506040513d602081101561044557600080fd5b81019080805190602001909291905050506104c8576040517f08c379a00000000000000000000000000000000000000000000000000000000081526004018080602001828103825260138152602001807f427579546f6b656e73207265717569726520310000000000000000000000000081525060200191505060405180910390fd5b806003600082825401925050819055507f5e5e995ce3133561afceaa51a9a154d5db228cd7525d34df5185582c18d3df093382604051808373ffffffffffffffffffffffffffffffffffffffff1673ffffffffffffffffffffffffffffffffffffffff1681526020018281526020019250505060405180910390a150565b6000809054906101000a900473ffffffffffffffffffffffffffffffffffffffff1673ffffffffffffffffffffffffffffffffffffffff163373ffffffffffffffffffffffffffffffffffffffff1614610608576040517f08c379a00000000000000000000000000000000000000000000000000000000081526004018080602001828103825260118152602001807f7265717569726520656e6453616c65203100000000000000000000000000000081525060200191505060405180910390fd5b600160009054906101000a900473ffffffffffffffffffffffffffffffffffffffff1673ffffffffffffffffffffffffffffffffffffffff1663a9059cbb6000809054906101000a900473ffffffffffffffffffffffffffffffffffffffff16600160009054906101000a900473ffffffffffffffffffffffffffffffffffffffff1673ffffffffffffffffffffffffffffffffffffffff166370a08231306040518263ffffffff1660e01b8152600401808273ffffffffffffffffffffffffffffffffffffffff1673ffffffffffffffffffffffffffffffffffffffff16815260200191505060206040518083038186803b15801561070757600080fd5b505afa15801561071b573d6000803e3d6000fd5b505050506040513d602081101561073157600080fd5b81019080805190602001909291905050506040518363ffffffff1660e01b8152600401808373ffffffffffffffffffffffffffffffffffffffff1673ffffffffffffffffffffffffffffffffffffffff16815260200182815260200192505050602060405180830381600087803b1580156107ab57600080fd5b505af11580156107bf573d6000803e3d6000fd5b505050506040513d60208110156107d557600080fd5b8101908080519060200190929190505050610858576040517f08c379a00000000000000000000000000000000000000000000000000000000081526004018080602001828103825260118152602001807f7265717569726520656e6453616c65203100000000000000000000000000000081525060200191505060405180910390fd5b6000809054906101000a900473ffffffffffffffffffffffffffffffffffffffff1673ffffffffffffffffffffffffffffffffffffffff166108fc479081150290604051600060405180830381858888f193505050501580156108bf573d6000803e3d6000fd5b50565b60035481565b600160009054906101000a900473ffffffffffffffffffffffffffffffffffffffff1681565b60025481565b6000809054906101000a900473ffffffffffffffffffffffffffffffffffffffff1681565b600080821480610936575082828385029250828161093357fe5b04145b6109a8576040517f08c379a00000000000000000000000000000000000000000000000000000000081526004018080602001828103825260198152602001807f726571756972652066756e6374696f6e206d756c7469706c790000000000000081525060200191505060405180910390fd5b9291505056fea265627a7a72315820a8d518d6b68c0ec5d4e3101164a71d431f1041d5136564ff79552487f6507d5664736f6c63430005100032",
  "source": "pragma solidity >=0.4.21 <0.7.0;\r\n\r\nimport \"./DappToken.sol\";\r\n\r\ncontract DappTokenSale {\r\n    address payable public admin ;\r\n    DappToken public tokenContract;\r\n    uint256 public tokenPrice;\r\n    uint256 public tokensSold;\r\n\r\n    event Sell(address _buyer, uint256 _amount);\r\n\r\n    constructor(DappToken _tokenContract, uint256 _tokenPrice) public {\r\n        admin = msg.sender;\r\n        tokenContract = _tokenContract;\r\n        tokenPrice = _tokenPrice;\r\n    }\r\n\r\n    function multiply(uint x, uint y) internal pure returns (uint z) {\r\n        require(y == 0 || (z = x * y) / y == x,\"require function multiply\");\r\n        }\r\n\r\n    function buyTokens(uint256 _numberOfTokens) public payable  {\r\n        require(msg.value == multiply(_numberOfTokens, tokenPrice),\"BuyTokens require 1\");\r\n        require(tokenContract.balanceOf(address(this)) >= _numberOfTokens,\"BuyTokens require 2\");\r\n        require(tokenContract.transfer(msg.sender, _numberOfTokens),\"BuyTokens require 1\");\r\n\r\n        tokensSold += _numberOfTokens;\r\n\r\n        emit Sell(msg.sender, _numberOfTokens);\r\n    }\r\n\r\n    function endSale() public {\r\n        require(msg.sender == admin,\"require endSale 1\");\r\n        require(tokenContract.transfer(admin, tokenContract.balanceOf(address(this))),\"require endSale 1\");\r\n\r\n        // UPDATE: Let's not destroy the contract here\r\n        // Just transfer the balance to the admin\r\n       admin.transfer(address(this).balance);\r\n    }\r\n}",
  "sourcePath": "C:\\Users\\LAMIA\\Documents\\BlockChain\\billetterie - Rinkeby - Copie\\contracts\\DappTokenSale.sol",
  "compiler": {
    "name": "solc",
    "version": "0.5.16+commit.9c3226ce.Emscripten.clang"
  },
  "schemaVersion": "3.0.23",
  "updatedAt": "2020-05-09T00:23:50.057Z",
  "networkType": "ethereum",
  "devdoc": {
    "methods": {}
  },
  "userdoc": {
    "methods": {}
  }
}